:100000001CC02CC02AC029C028C027C026C025C0BB
:1000100024C023C022C021C020C01FC01EC0AE20EB
:1000200000B0C8001040813FA1A6A81FA4D300D5EE
:10003000F0D922DA02DB208D140011241FBECFE597
:10004000D2E0DEBFCDBF20E0A0E6B0E001C01D924F
:10005000AB39B207E1F708D218C2D2CF1F920F9284
:100060000FB60F9211248F9380916100813011F4AB
:1000700080E10BC0803111F48FEF07C08F3F11F486
:1000800080EF03C0803F19F481E0809361008F917D
:100090000F900FBE0F901F90189582E0809366001E
:1000A00083E08093620081E08093610085E2809329
:1000B00063000895CF93DF9380916200EFEFE80F24
:1000C000E093600020919A00A4E6B0E090E09E17D3
:1000D00088F4C82FD0E0CD59DF4F48813C914313BD
:1000E00003C02F3909F08FEF11963C9111973D9382
:1000F0009F5FEDCF8093620010929A00F0E0EC5980
:10010000FF4F208130916100932F920F313011F019
:100110003F3F21F49F70207F920F01C09F73908317
:1001200090812091630092130FC0E82FF0E0EC590A
:10013000FF4F90839FE990939A008F5F80936200B6
:1001400082B78F7380936300DF91CF910895DF9220
:10015000EF92FF920F931F93CF93DF93F89491D078
:1001600088E7A8D080E4A6D0C0E0D0E811E0FF2462
:10017000FA948EEFE82E9EE7D92E109297001092F7
:100180009800C03138F410939700109398001093A2
:10019000990008C0C03330F0D0939700D0939800F6
:1001A000D09399008C2F8F7039F4F0929700809142
:1001B00098008093990008C08F3031F480919800A6
:1001C00080939700F09299009091620020916300D3
:1001D000E4E6F0E080E0891771F031913C1307C04C
:1001E000E0929700E09298001092990004C02C17BA
:1001F000B9F38F5FF0CF9F3F31F410929700D09208
:100200009800109299008091970054D006E0809158
:10021000980050D00150D9F7809199004BD0CF5F12
:10022000C03409F0AACF15D07894809162008F3F36
:1002300041F4DF91CF911F910F91FF90EF90DF90EC
:100240002CCFDF91CF911F910F91FF90EF90DF9016
:100250000895BC9AC4980000BB9AC3980000BC984B
:10026000C49A0000BB98C39A0000B39902C082E010
:1002700001C080E0B49B816000000000000000002D
:100280000895BB9AC3980000BC9AC49800000895D2
:10029000BB98C39A0000BC98C49A0000BB9AC3984C
:1002A0000000BC9AC49800000895BB98C39ABC98FB
:1002B000C49ACFCF98E087FD03C0BB9AC39802C011
:1002C000BB98C39A0000BC98C49A0000BC9AC4981A
:1002D000880F915081F7BB98C39A0000BC98C49ACC
:1002E000000086B3BC9AC49883FB882780F90895E0
:1002F000282FBB98C39A98E080E0880FBC98C49AD6
:100300000000B3998160BC9AC49800009150A9F78D
:10031000211103C0BB9AC39802C0BB98C39A0000C6
:10032000BC98C49A0000BC9AC4980000BB98C39AB9
:100330000895FF920F931F93CF93DF93F82E092F09
:10034000162F9FDF88E7B6DF80E0B4DFCF2DD02FF8
:10035000CE01810F911D8C01C017D10719F0899131
:10036000A9DFFACFDF91CF911F910F91FF9071CF4D
:10037000EF92FF920F931F93CF93DF937C018B013A
:1003800080DF88E797DF80E495DFE7010E0D1F1D12
:10039000C017D10719F089918DDFFACFDF91CF9186
:1003A0001F910F91FF90EF9054CF1F93CF93DF9346
:1003B000CDB7DEB76C970FB6F894DEBF0FBECDBFDA
:1003C000182F73DFEEE1F0E0DE0111969E01245E4E
:1003D0003F4FCD0144914D933196A217B307D1F70A
:1003E0001C8F6CE1A6DF6C960FB6F894DEBF0FBED3
:1003F000CDBFDF91CF911F910895CF93DF931F92CF
:10040000CDB7DEB7813011F086EA01C087EA898373
:1004100061E0CE0101968DDF0F90DF91CF910895BD
:10042000CF93DF931F92CDB7DEB7813011F08FEA03
:1004300001C08EEA898361E0CE0101967ADF0F90D8
:10044000DF91CF910895CF93DF9300D0CDB7DEB782
:1004500091E899838A8362E0CE0101966ADF0F906A
:100460000F90DF91CF910895B998C19A82E085BF2E
:100470008BB780668BBF83E083BF78940EDE8FEAF4
:0E04800094DF65DE64DE16DEFCCFF894FFCF5D
:00000001FF
